:100000000C942A000C9447000C9447000C94470071
:100010000C9447000C9447000C9447000C94470044
:100020000C9447000C9447000C9447000C94470034
:100030000C9447000C9447000C9447000C94470024
:100040000C9447000C9447000C9447000C94470014
:100050000C94470011241FBECFE5D8E0DEBFCDBF12
:1000600011E0A0E6B0E0E6EEFAE002C005900D92E5
:10007000A834B107D9F721E0A8E4B1E001C01D928E
:10008000AC34B207E1F70E9481040C941D050C9476
:10009000000088EE93E006B607FE06C091B1987F97
:1000A00081E0909362000895019729F023E02A955A
:1000B000F1F70000F0CF9FEF80E0F3CF84B38C7FA7
:1000C00084BB85B38C7F85BB11B882E080B984E0A6
:1000D00086BF089528EE33E093B39823981302C0A7
:1000E00081E008952150304029F093E09A95F1F78E
:1000F0000000F2CF80E00895CF9316BE84B38C7FCA
:1001000084BB85B38C7F85BB81E00E946A00C9E017
:10011000811106C0C0E00E945E008C2FCF9108952F
:10012000999911C0A09A83E08A95F1F70000A098F0
:1001300081E00E946A00811569F383E08A95F1F7F6
:100140000000CA9569F7A09AA19A83E08A95F1F711
:100150000000A09881E00E946A008115D9F283E036
:100160008A95F1F70000A19883E08A95F1F70000E5
:1001700083E00E946A00C82FCECF84E986BF88EE54
:1001800093E006B604FC0AC000C000C0000083E093
:100190000E946A0081110AC08DEF03C0019739F4F3
:1001A0008EEF809362000E947C0080E0089523E03F
:1001B0002A95F1F70000E5CFCF93C09162000E942D
:1001C000BD00811559F088EF809361008C2F8F7EE0
:1001D000803249F4C0936200CF910895809162000B
:1001E00080936100F7CFC834A9F30E947C0081118D
:1001F000F1CF8DEFF5CFCF93C82F84EA86BF0E9451
:100200004900811102C080E014C0809162008830F2
:1002100011F08031C1F7C3B984E886BF0E9449005C
:10022000811589F39091620081E0C0FD04C098318E
:1002300051F7CF9108959034FBCF83B984E886BFFE
:100240000E944900811531F081E09091620098325E
:1002500009F080E00895CF93DF93EC0184EC86BF32
:100260000E944900811531F090916200903529F487
:1002700093B19883DF91CF91089580E0FBCFCF9326
:10028000DF93EC0184E886BF0E944900811531F0BC
:1002900090916200983529F493B19883DF91CF91C2
:1002A000089580E0FBCFCF93C82F80914B0181153B
:1002B00049F088E70E94FB00811107C00E94DC0022
:1002C00010924B0180E0CF9108958C2F0E941D0168
:1002D0008111F9CFF3CFCF93C62F0E94530181151F
:1002E00049F08C2F0E941D01811106C00E94DC0084
:1002F00010924B01CF9108950E94BD0080934B0155
:10030000F9CF682F80E00C946B01682F80E40C9487
:100310006B0187EA91E60197F1F700C0000081E0E8
:1003200080934B018EEA0E94810185ED0E9481013C
:1003300080E80E94810188EA0E9481018FE30E9487
:10034000810183ED0E94810180E00E94810180E4AF
:100350000E9481018DE80E94810184E10E94810157
:1003600080E20E94810182E00E94810181EA0E9474
:10037000810188EC0E9481018AED0E94810182E165
:100380000E94810181E80E9481018FE70E94810122
:1003900089ED0E94810181EF0E9481018BED0E9415
:1003A000810180E40E94810184EA0E94810186EA41
:1003B0000E9481018FEA0C948101CF93C82F862F70
:1003C000806B0E9481018C2F8F700E9481018C2F85
:1003D00082958F708061CF910C948101CF93DF93D0
:1003E000C0E06C2F80E00E94DD0180E40E94530198
:1003F000811551F0D0E880E00E941D01811107C0F5
:100400000E94DC0010924B01DF91CF910895DA95A4
:1004100091F70E94BD0080934B01CF5FC830A1F3DC
:10042000E0CF80914B01811102C00E9489010C94A0
:10043000EE01EF92FF920F931F93CF93DF93CDB70F
:10044000DEB72A970FB6F894DEBF0FBECDBFFE0110
:10045000369695E0DF011D929A95E9F785529E2F19
:100460002F2F8435C8F4E82F880FFF0BE15EFA4F79
:100470000C94080585E0E7E7F0E0DE0111960190B5
:100480000D928A95E1F785E0FE013196DE01169620
:1004900001900D928A95E1F7092F122F7E01BBE0A2
:1004A000EB0EF11CF80181918F010E9485010E1560
:1004B0001F05C1F780E02A960FB6F894DEBF0FBE85
:1004C000CDBFDF91CF911F910F91FF90EF900C94D2
:1004D000850185E0EDE7F0E0D0CF85E0E3E8F0E0EE
:1004E000CCCF85E0E9E8F0E0C8CF85E0E3E6F0E0D6
:1004F000C4CF85E0EFE8F0E0C0CF85E0E5E9F0E0CB
:10050000BCCF85E0EBE9F0E0B8CF85E0E1EAF0E0D0
:10051000B4CF85E0E7EAF0E0B0CF85E0E8E6F0E0D0
:10052000ACCF85E0EDEAF0E0A8CF85E0E3EBF0E0CA
:10053000A4CF85E0E9EBF0E0A0CF85E0EFEBF0E0C1
:100540009CCF85E0E5ECF0E098CF85E0EBECF0E0C7
:1005500094CF85E0E1EDF0E090CF85E0E7EDF0E0CD
:100560008CCF85E0EDEDF0E088CF85E0E3EEF0E0C4
:1005700084CF85E0E9EEF0E080CF85E0EFEEF0E0BB
:100580007CCF85E0E5EFF0E078CF85E0EBEFF0E0C1
:1005900074CF85E0EDE6F0E070CF85E0E1E0F1E0DA
:1005A0006CCF85E0E2E7F0E068CF85E0E7E0F1E0DE
:1005B00064CF85E0EDE0F1E060CFCF93DF93EC0115
:1005C0008991811103C0DF91CF9108950E94190292
:1005D000F7CFCF92DF92EF92FF921F93CF93DF93EB
:1005E00000D000D000D0CDB7DEB79C01892B81F4BC
:1005F00080E30F900F900F900F900F900F90DF916E
:10060000CF911F91FF90EF90DF90CF900C94190243
:10061000FE01319610E07F018AE0C82ED12CC9017D
:10062000B6010E94D2041F5F805D8193C9019B01C6
:100630000A9710F0153099F71150F701E10FF11DED
:1006400080810E9419021111F7CF0F900F900F9027
:100650000F900F900F90DF91CF911F91FF90EF902F
:10066000DF90CF900895CF93C82F80916200809340
:1006700060000E94DC008C2FCF91089510924A01F7
:1006800086E40E94FB00811569F083E280934A01B1
:100690000E94BD0081110FC08091620080936000B4
:1006A00087E0089581E00E94330380916100883FD4
:1006B000A9F781E0089580E00895CF93DF93D82FC4
:1006C000C62F80914A01880F0E94FB0081110AC049
:1006D00080916200809360000E94DC008C2FDF918B
:1006E000CF9108958D2F0E941D01811589F30E94DD
:1006F000BD00811106C0809162008093600087E098
:10070000EECF80E0ECCF0E943E03811118C062E082
:1007100081E00E945D03811112C083EC99E0019792
:10072000F1F700C0000063E080E10E945D038111E9
:1007300006C0EFE4F3EC3197F1F700C00000089534
:100740000F931F93CF93DF9300D0CDB7DEB78C010B
:1007500080914A01880F81600E94FB0081110EC0C8
:1007600080916200809360000E94DC0084E00F9022
:100770000F90DF91CF911F910F910895CE010296B6
:100780000E942B01811108C080916200809360005B
:100790000E94DC0085E0EBCFCE0101960E943F0174
:1007A000811108C080916200809360000E94DC008B
:1007B00086E0DDCF0E94BD00811106C080916200FD
:1007C0008093600087E0D3CF8A812981382F3093CE
:1007D000490120934801A5E0B0E00E940E0526E003
:1007E00030E040E050E00E94E604F80131832083CD
:1007F00088E58093600080E0BACFCF93C82F85E46E
:100800000E9419028C2F90E00E94E90283E191E09E
:10081000CF910C94DD021F93CF93DF93CDB7DEB75A
:1008200061970FB6F894DEBF0FBECDBF182F81E1E0
:10083000EBE1F1E0DE01119601900D928A95E1F76E
:1008400088E191E00E94DD02812F82958F70FE0188
:100850003196E80FF11D80810E9419021F70FE0180
:100860003196E10FF11D808161960FB6F894DEBFDD
:100870000FBECDBFDF91CF911F910C9419021F9332
:10088000CF93DF93182FD92FC62F642F80E00E94BB
:10089000DD018CE291E00E94DD02C11531F08C2F68
:1008A000DF91CF911F910C94FD03812F9D2F0E940A
:1008B000E9028FE291E0DF91CF911F910C94DD026C
:1008C000CF93C82F80E00E94DD0183E391E00E9476
:1008D000DD0280914A01811569F00E940B04C11567
:1008E00071F089E391E00E94DD0280916000CF9178
:1008F0000C940B0486E391E00E94DD02F0CFCF91CF
:10090000089500D0CDB7DEB70E945E000E947C0043
:100910000E9489010E94EE011A82198200E00115ED
:10092000A1F1CE0101960E94A003182F01E08111D0
:1009300000E00E94110260E080E00E94DD018DE392
:1009400091E00E94DD0242E0612F89819A810E943C
:100950003F0464E080E00E94DD0184E491E00E94B5
:10096000DD021115C1F086E391E00E94DD0266E030
:10097000812F0E9460042FE38DE093E0215080409E
:100980009040E1F700C00000CACF0E948303182FF7
:10099000811539F2CECF80914801909149010E9492
:1009A000E902E5CFAA1BBB1B51E107C0AA1FBB1F71
:1009B000A617B70710F0A61BB70B881F991F5A95EB
:1009C000A9F780959095BC01CD010895A1E21A2E5A
:1009D000AA1BBB1BFD010DC0AA1FBB1FEE1FFF1FE3
:1009E000A217B307E407F50720F0A21BB30BE40B33
:1009F000F50B661F771F881F991F1A9469F760957A
:100A00007095809590959B01AC01BD01CF01089533
:100A1000EE0FFF1F0590F491E02D0994A29FB00105
:100A2000B39FC001A39F700D811D1124911DB29F22
:100A3000700D811D1124911D0895F894FFCFD502EA
:100A40004C024C024C024C024C024C024C02D902A9
:100A50004C024C0289028D029102950299029D027C
:100A6000A102A502A902AD02D1024C024C024C0225
:100A70004C024C024C023A026902BD026D02C102F4
:100A800071024C02B50275024C024C02B9024C02D2
:100A900079027D024C024C02C5028102B10285023C
:100AA0004C024C024C024C024C024C024C024C02D6
:100AB0004C024C024C024C024C024C024C024C02C6
:100AC0004C024C024C024C024C024C02C9024C0239
:100AD0004C024C024C024C024C024C024C024C02A6
:060AE0004C024C02CD02A5
:100AE600F8F8F800417F410000427F400000417F56
:100AF600400000363600007E1111117E007F494904
:100B06004936007F4141221C007F09090901007F07
:100B16000204087F003E4141413E004649494931B1
:100B2600003F4040403F003E5149453E0042615132
:100B36004946002141454B31001814127F10002709
:100B460045454539003C4A494930000171090503CC
:100B560000364949493600064949291E0001017FE8
:100B66000101007F0808087F007F40404040003EAA
:100B760041414122007F49494941007F09192946DF
:100B8600004428102844006313086463000808081A
:100B9600080800202020200030780030313233341D
:100BA6003536373839414243444546004C3A0020F1
:100BB6006C7800413A002D2D0020533A004248310E
:080BC60037353000523A0000FF
:00000001FF
