:100000000C942A000C9447000C9447000C94470071
:100010000C9447000C9447000C9447000C94470044
:100020000C9447000C9447000C9447000C94470034
:100030000C9447000C9447000C9447000C94470024
:100040000C9447000C9447000C9447000C94470014
:100050000C94470011241FBECFE5D8E0DEBFCDBF12
:1000600011E0A0E6B0E0EAE9FDE002C005900D92E3
:10007000A236B107D9F721E0A2E6B1E001C01D9296
:10008000A636B207E1F70E94DB050C9477060C94C4
:10009000000088EE93E006B607FE06C091B1987F97
:1000A00081E0909362000895019729F023E02A955A
:1000B000F1F70000F0CF9FEF80E0F3CF84B38C7FA7
:1000C00084BB85B38C7F85BB11B882E080B984E0A6
:1000D00086BF089528EE33E093B39823981302C0A7
:1000E00081E008952150304029F093E09A95F1F78E
:1000F0000000F2CF80E00895CF9316BE84B38C7FCA
:1001000084BB85B38C7F85BB81E00E946A00C9E017
:10011000811106C0C0E00E945E008C2FCF9108952F
:10012000999911C0A09A83E08A95F1F70000A098F0
:1001300081E00E946A00811569F383E08A95F1F7F6
:100140000000CA9569F7A09AA19A83E08A95F1F711
:100150000000A09881E00E946A008115D9F283E036
:100160008A95F1F70000A19883E08A95F1F70000E5
:1001700083E00E946A00C82FCECF84E986BF88EE54
:1001800093E006B604FC0AC000C000C0000083E093
:100190000E946A0081110AC08DEF03C0019739F4F3
:1001A0008EEF809362000E947C0080E0089523E03F
:1001B0002A95F1F70000E5CFCF93C09162000E942D
:1001C000BD00811559F088EF809361008C2F8F7EE0
:1001D000803249F4C0936200CF910895809162000B
:1001E00080936100F7CFC834A9F30E947C0081118D
:1001F000F1CF8DEFF5CFCF93C82F84EA86BF0E9451
:100200004900811102C080E014C0809162008830F2
:1002100011F08031C1F7C3B984E886BF0E9449005C
:10022000811589F39091620081E0C0FD04C098318E
:1002300051F7CF9108959034FBCF83B984E886BFFE
:100240000E944900811531F081E09091620098325E
:1002500009F080E00895CF93DF93EC0184EC86BF32
:100260000E944900811531F090916200903529F487
:1002700093B19883DF91CF91089580E0FBCFCF9326
:10028000DF93EC0184E886BF0E944900811531F0BC
:1002900090916200983529F493B19883DF91CF91C2
:1002A000089580E0FBCFCF93C82F80916501811521
:1002B00049F088E70E94FB00811107C00E94DC0022
:1002C0001092650180E0CF9108958C2F0E941D014E
:1002D0008111F9CFF3CFCF93C62F0E94530181151F
:1002E00049F08C2F0E941D01811106C00E94DC0084
:1002F00010926501CF9108950E94BD008093650121
:10030000F9CF682F80E00C946B01682F80E40C9487
:100310006B0187EA91E60197F1F700C0000081E0E8
:10032000809365018EEA0E94810185ED0E94810122
:1003300080E80E94810188EA0E9481018FE30E9487
:10034000810183ED0E94810180E00E94810180E4AF
:100350000E9481018DE80E94810184E10E94810157
:1003600080E20E94810182E00E94810181EA0E9474
:10037000810188EC0E9481018AED0E94810182E165
:100380000E94810181E80E9481018FE70E94810122
:1003900089ED0E94810181EF0E9481018BED0E9415
:1003A000810180E40E94810184EA0E94810186EA41
:1003B0000E9481018FEA0C948101CF93C82F862F70
:1003C000806B0E9481018C2F8F700E9481018C2F85
:1003D00082958F708061CF910C948101CF93DF93D0
:1003E000C0E06C2F80E00E94DD0180E40E94530198
:1003F000811551F0D0E880E00E941D01811107C0F5
:100400000E94DC0010926501DF91CF910895DA958A
:1004100091F70E94BD0080936501CF5FC830A1F3C2
:10042000E0CF80916501811102C00E9489010C9486
:10043000EE01EF92FF920F931F93CF93DF93CDB70F
:10044000DEB72A970FB6F894DEBF0FBECDBFFE0110
:10045000369695E0DF011D929A95E9F785529E2F19
:100460002F2F8435C8F4E82F880FFF0BE758F94F7A
:100470000C94620685E0E7E7F0E0DE01119601905A
:100480000D928A95E1F785E0FE013196DE01169620
:1004900001900D928A95E1F7092F122F7E01BBE0A2
:1004A000EB0EF11CF80181918F010E9485010E1560
:1004B0001F05C1F780E02A960FB6F894DEBF0FBE85
:1004C000CDBFDF91CF911F910F91FF90EF900C94D2
:1004D000850185E0EDE7F0E0D0CF85E0E3E8F0E0EE
:1004E000CCCF85E0E9E8F0E0C8CF85E0E3E6F0E0D6
:1004F000C4CF85E0EFE8F0E0C0CF85E0E5E9F0E0CB
:10050000BCCF85E0EBE9F0E0B8CF85E0E1EAF0E0D0
:10051000B4CF85E0E7EAF0E0B0CF85E0E8E6F0E0D0
:10052000ACCF85E0EDEAF0E0A8CF85E0E3EBF0E0CA
:10053000A4CF85E0E9EBF0E0A0CF85E0EFEBF0E0C1
:100540009CCF85E0E5ECF0E098CF85E0EBECF0E0C7
:1005500094CF85E0E1EDF0E090CF85E0E7EDF0E0CD
:100560008CCF85E0EDEDF0E088CF85E0E3EEF0E0C4
:1005700084CF85E0E9EEF0E080CF85E0EFEEF0E0BB
:100580007CCF85E0E5EFF0E078CF85E0EBEFF0E0C1
:1005900074CF85E0EDE6F0E070CF85E0E1E0F1E0DA
:1005A0006CCF85E0E2E7F0E068CF85E0E7E0F1E0DE
:1005B00064CF85E0EDE0F1E060CFCF93DF93EC0115
:1005C0008991811103C0DF91CF9108950E94190292
:1005D000F7CFCF92DF92EF92FF921F93CF93DF93EB
:1005E00000D000D000D0CDB7DEB79C01892B81F4BC
:1005F00080E30F900F900F900F900F900F90DF916E
:10060000CF911F91FF90EF90DF90CF900C94190243
:10061000FE01319610E07F018AE0C82ED12CC9017D
:10062000B6010E942C061F5F805D8193C9019B016A
:100630000A9710F0153099F71150F701E10FF11DED
:1006400080810E9419021111F7CF0F900F900F9027
:100650000F900F900F90DF91CF911F91FF90EF902F
:10066000DF90CF900895CF93C82F80916200809340
:1006700060000E94DC008C2FCF91089510926401DD
:1006800086E40E94FB00811569F083E28093640197
:100690000E94BD0081110FC08091620080936000B4
:1006A00087E0089581E00E94330380916100883FD4
:1006B000A9F781E0089580E00895CF93DF93D82FC4
:1006C000C62F80916401880F0E94FB0081110AC02F
:1006D00080916200809360000E94DC008C2FDF918B
:1006E000CF9108958D2F0E941D01811589F30E94DD
:1006F000BD00811106C0809162008093600087E098
:10070000EECF80E0ECCF0E943E03811118C062E082
:1007100081E00E945D03811112C083EC99E0019792
:10072000F1F700C0000063E080E10E945D038111E9
:1007300006C0EFE4F3EC3197F1F700C00000089534
:100740000F931F93CF93DF9300D0CDB7DEB78C010B
:1007500080916401880F81600E94FB0081110EC0AE
:1007600080916200809360000E94DC0084E00F9022
:100770000F90DF91CF911F910F910895CE010296B6
:100780000E942B01811108C080916200809360005B
:100790000E94DC0085E0EBCFCE0101960E943F0174
:1007A000811108C080916200809360000E94DC008B
:1007B00086E0DDCF0E94BD00811106C080916200FD
:1007C0008093600087E0D3CF8A812981382F3093CE
:1007D000630120936201A5E0B0E00E94680626E074
:1007E00030E040E050E00E944006F8013183208371
:1007F00088E58093600080E0BACF81E083BF12BEBD
:10080000089512BE9927CB999395981729F092B71E
:100810009617C0F380E0089581E00895AF92BF92EB
:10082000CF92DF92EF92FF920F931F93CF93DF93BC
:1008300000D000D00F92CDB7DEB77C016B01CE01A6
:1008400001965C0185E0F50111928A95E9F71FB7E1
:10085000F894D39ADB9887E893E10197F1F700C009
:100860000000DB9A9AE09A95F1F7D398DB9A68E753
:1008700080E00E940104811112C01FBF81E00F902F
:100880000F900F900F900F90DF91CF911F910F91CC
:10089000FF90EF90DF90CF90BF90AF90089568E702
:1008A00081E00E940104811103C01FBF82E0E7CFF5
:1008B00068E780E00E94010400E0811103C01FBFCF
:1008C00083E0DDCF64E681E00E940104811103C072
:1008D0001FBF84E0D4CF12BE99B3892F887093FDD7
:1008E00023C042B7E02FE695E695E6952E2F30E03F
:1008F000EA0DFB2DF11D9081990F4E3208F09160A9
:10090000F501E20FF31F90830F5F0832D9F63981AA
:100910002B819A81930F920F4C81940F4D8149172F
:1009200039F01FBF85E0ABCF82B78837A8F2D0CFB0
:10093000F6013083F70120831FBFA1CFCF93C82FCB
:1009400085E40E9419028C2F90E00E94E90283E165
:1009500091E0CF910C94DD021F93CF93DF93CDB73D
:10096000DEB761970FB6F894DEBF0FBECDBF182F6C
:1009700081E1EBE1F1E0DE01119601900D928A95A3
:10098000E1F788E191E00E94DD02812F82958F706E
:10099000FE013196E80FF11D80810E9419021F703F
:1009A000FE013196E10FF11D808161960FB6F8943A
:1009B000DEBF0FBECDBFDF91CF911F910C94190206
:1009C000CF93DF93CDB7DEB7C257D1090FB6F894F6
:1009D000DEBF0FBECDBFCE0101967C0186E3C82EDF
:1009E00081E0D82E9CE2A92E91E0B92E18E0E39682
:1009F0001FAEE39798EFE2969FAFE297412C512C00
:100A0000812F880F0E94FB00811509F475C099247D
:100A10009394950CF701E50DF11D10830E94BD0024
:100A200000916200592C811509F475C01F5F1837B9
:100A300039F7352C511002C0332433948701652CCB
:100A4000712C842C912C0E94110260E080E00E94A5
:100A5000DD01C501511001C0C6010E94DD0262E046
:100A600080E00E94DD01511461F0F8012080822DA8
:100A70000E94AC0480E20E941902822D90E00E9444
:100A8000E90264E080E00E94DD018FE391E00E94D2
:100A9000DD02C3010E94E90282E491E00E94DD02CE
:100AA000C4010E94E9024114B1F066E080E00E94B6
:100AB000DD0185E591E00E94DD02E2968FADE297CF
:100AC0000E94AC0486E491E00E94DD02E3968FADC3
:100AD000E3970E94AC04FFE32DE083E0F150204057
:100AE0008040E1F700C000000F5F1F4F802F8E197C
:100AF000831508F07BCFA7CF009162000E94DC0035
:100B000080916100883F21F0003229F4082F03C052
:100B1000003209F48BCF411441F0E2960FADE29719
:100B20004394E2960FAFE29781CFE3961FAFE3972E
:100B3000F7CF1F93CF93DF93182FD92FC62F642F92
:100B400080E00E94DD018AE491E00E94DD02C1158F
:100B500031F08C2FDF91CF911F910C949E04812F47
:100B60009D2F0E94E9028DE491E0DF91CF911F91CA
:100B70000C94DD02CF93C82F80E00E94DD0187E452
:100B800091E00E94DD0280916401811569F00E946C
:100B9000AC04C11571F084E591E00E94DD02809102
:100BA0006000CF910C94AC0481E591E00E94DD02DD
:100BB000F0CFCF91089500D0CDB7DEB70E945E0090
:100BC0000E947C000E9489010E94EE011A82198213
:100BD00000E00115A1F1CE0101960E94A003182F9B
:100BE00001E0811100E00E94110260E080E00E94BB
:100BF000DD0188E591E00E94DD0242E0612F8981FC
:100C00009A810E94990564E080E00E94DD018FE5F1
:100C100091E00E94DD021115C1F081E591E00E9492
:100C2000DD0266E0812F0E94BA052FE38DE093E09C
:100C3000215080409040E1F700C00000CACF0E94E0
:100C40008303182F811539F2CECF809162019091E4
:100C500063010E94E902E5CFAA1BBB1B51E107C05B
:100C6000AA1FBB1FA617B70710F0A61BB70B881F3C
:100C7000991F5A95A9F780959095BC01CD010895CB
:100C8000A1E21A2EAA1BBB1BFD010DC0AA1FBB1F90
:100C9000EE1FFF1FA217B307E407F50720F0A21B02
:100CA000B30BE40BF50B661F771F881F991F1A946F
:100CB00069F760957095809590959B01AC01BD0199
:100CC000CF010895EE0FFF1F0590F491E02D0994D8
:100CD000A29FB001B39FC001A39F700D811D11247D
:100CE000911DB29F700D811D1124911D0895F894DE
:100CF000FFCFD5024C024C024C024C024C024C027B
:100D00004C02D9024C024C0289028D0291029502DA
:100D100099029D02A102A502A902AD02D1024C02D4
:100D20004C024C024C024C024C023A026902BD02D7
:100D30006D02C10271024C02B50275024C024C02F6
:100D4000B9024C0279027D024C024C02C5028102BA
:100D5000B10285024C024C024C024C024C024C0285
:100D60004C024C024C024C024C024C024C024C0213
:100D70004C024C024C024C024C024C024C024C0203
:100D8000C9024C024C024C024C024C024C024C0276
:0A0D90004C024C024C024C02CD0252
:100D9A00F8F8F800417F410000427F400000417F9F
:100DAA00400000363600007E1111117E007F49494D
:100DBA004936007F4141221C007F09090901007F51
:100DCA000204087F003E4141413E004649494931FB
:100DDA00003F4040403F003E5149453E004261517C
:100DEA004946002141454B31001814127F10002753
:100DFA0045454539003C4A49493000017109050316
:100E0A0000364949493600064949291E0001017F31
:100E1A000101007F0808087F007F40404040003EF3
:100E2A0041414122007F49494941007F0919294628
:100E3A000044281028440063130864630008080863
:100E4A000808002020202000307800303132333466
:100E5A003536373839414243444546004932432002
:100E6A00464F554E4400493243204E4F4E45004EA0
:100E7A003A0020453A0020413A004C3A00206C786A
:100E8A00002D2D0020533A004248313735300052A8
:020E9A003A001C
:00000001FF
