:100000000C942A000C9447000C9447000C94470071
:100010000C9447000C9447000C9447000C94470044
:100020000C9447000C9447000C9447000C94470034
:100030000C9447000C9447000C9447000C94470024
:100040000C9447000C9447000C9447000C94470014
:100050000C94470011241FBECFE5D8E0DEBFCDBF12
:1000600011E0A0E6B0E0E4EEF8E002C005900D92E9
:10007000A834B107D9F721E0A8E4B1E001C01D928E
:10008000A934B207E1F70E94F8030C941C040C9405
:10009000000088EE93E006B607FE06C091B1987F97
:1000A00081E0909361000895019729F023E02A955B
:1000B000F1F70000F0CF9FEF80E0F3CF84B38C7FA7
:1000C00084BB85B38C7F85BB11B882E080B984E0A6
:1000D00086BF089528EE33E093B39823981302C0A7
:1000E00081E008952150304029F093E09A95F1F78E
:1000F0000000F2CF80E00895CF9316BE84B38C7FCA
:1001000084BB85B38C7F85BB81E00E946A00C9E017
:10011000811106C0C0E00E945E008C2FCF9108952F
:10012000999911C0A09A83E08A95F1F70000A098F0
:1001300081E00E946A00811569F383E08A95F1F7F6
:100140000000CA9569F7A09AA19A83E08A95F1F711
:100150000000A09881E00E946A008115D9F283E036
:100160008A95F1F70000A19883E08A95F1F70000E5
:1001700083E00E946A00C82FCECF84E986BF88EE54
:1001800093E006B604FC0AC000C000C0000083E093
:100190000E946A0081110AC08DEF03C0019739F4F3
:1001A0008EEF809361000E947C0080E0089523E040
:1001B0002A95F1F70000E5CFCF93C09161000E942E
:1001C000BD00811559F088EF809360008C2F8F7EE1
:1001D000803249F4C0936100CF910895809161000D
:1001E00080936000F7CFC834A9F30E947C0081118E
:1001F000F1CF8DEFF5CFCF93C82F84EA86BF0E9451
:100200004900811102C080E014C0809161008830F3
:1002100011F08031C1F7C3B984E886BF0E9449005C
:10022000811589F39091610081E0C0FD04C098318F
:1002300051F7CF9108959034FBCF83B984E886BFFE
:100240000E944900811531F081E09091610098325F
:1002500009F080E00895CF93C82F8091480181155F
:1002600049F088E70E94FB00811107C00E94DC0072
:100270001092480180E0CF9108958C2F0E941D01BB
:100280008111F9CFF3CFCF93C62F0E942B01811597
:1002900049F08C2F0E941D01811106C00E94DC00D4
:1002A00010924801CF9108950E94BD0080934801AB
:1002B000F9CF682F80E00C944301682F80E40C9400
:1002C000430187EA91E60197F1F700C0000081E061
:1002D000809348018EEA0E94590185ED0E945901E0
:1002E00080E80E94590188EA0E9459018FE30E9428
:1002F000590183ED0E94590180E00E94590180E478
:100300000E9459018DE80E94590184E10E9459011F
:1003100080E20E94590182E00E94590181EA0E9414
:10032000590188EC0E9459018AED0E94590182E12D
:100330000E94590181E80E9459018FE70E945901EA
:1003400089ED0E94590181EF0E9459018BED0E94B5
:10035000590180E40E94590184EA0E94590186EA09
:100360000E9459018FEA0C945901CF93C82F862F10
:10037000806B0E9459018C2F8F700E9459018C2F25
:1003800082958F708061CF910C945901CF93DF9348
:10039000C0E06C2F80E00E94B50180E40E942B0138
:1003A000811551F0D0E880E00E941D01811107C045
:1003B0000E94DC0010924801DF91CF910895DA95F8
:1003C00091F70E94BD0080934801CF5FC830A1F330
:1003D000E0CF80914801811102C00E9461010C941C
:1003E000C601EF92FF920F931F93CF93DF93CDB788
:1003F000DEB72A970FB6F894DEBF0FBECDBFFE0161
:10040000369695E0DF011D929A95E9F785529E2F69
:100410002F2F8435C8F4E82F880FFF0BE25EFB4FC7
:100420000C94160485E0E6E7F0E0DE0111960190F9
:100430000D928A95E1F785E0FE013196DE01169670
:1004400001900D928A95E1F7092F122F7E01BBE0F2
:10045000EB0EF11CF80181918F010E945D010E15D8
:100460001F05C1F780E02A960FB6F894DEBF0FBED5
:10047000CDBFDF91CF911F910F91FF90EF900C9422
:100480005D0185E0ECE7F0E0D0CF85E0E2E8F0E068
:10049000CCCF85E0E8E8F0E0C8CF85E0E2E6F0E028
:1004A000C4CF85E0EEE8F0E0C0CF85E0E4E9F0E01D
:1004B000BCCF85E0EAE9F0E0B8CF85E0E0EAF0E023
:1004C000B4CF85E0E6EAF0E0B0CF85E0E7E6F0E023
:1004D000ACCF85E0ECEAF0E0A8CF85E0E2EBF0E01D
:1004E000A4CF85E0E8EBF0E0A0CF85E0EEEBF0E014
:1004F0009CCF85E0E4ECF0E098CF85E0EAECF0E01A
:1005000094CF85E0E0EDF0E090CF85E0E6EDF0E01F
:100510008CCF85E0ECEDF0E088CF85E0E2EEF0E016
:1005200084CF85E0E8EEF0E080CF85E0EEEEF0E00D
:100530007CCF85E0E4EFF0E078CF85E0EAEFF0E013
:1005400074CF85E0ECE6F0E070CF85E0E0E0F1E02C
:100550006CCF85E0E1E7F0E068CF85E0E6E0F1E030
:1005600064CF85E0ECE0F1E060CFCF93DF93EC0166
:100570008991811103C0DF91CF9108950E94F1010B
:10058000F7CFCF92DF92EF92FF921F93CF93DF933B
:1005900000D000D000D0CDB7DEB79C01892B81F40C
:1005A00080E30F900F900F900F900F900F90DF91BE
:1005B000CF911F91FF90EF90DF90CF900C94F101BD
:1005C000FE01319610E07F018AE0C82ED12CC901CE
:1005D000B6010E9402041F5F805D8193C9019B01E7
:1005E0000A9710F0153099F71150F701E10FF11D3E
:1005F00080810E94F1011111F7CF0F900F900F90A1
:100600000F900F900F90DF91CF911F91FF90EF907F
:10061000DF90CF9008951F93CF93DF93CDB7DEB7D0
:1006200061970FB6F894DEBF0FBECDBF182F81E1E2
:10063000E5E1F1E0DE01119601900D928A95E1F776
:1006400082E191E00E94B502812F82958F70FE01B8
:100650003196E80FF11D80810E94F1011F70FE01AB
:100660003196E10FF11D808161960FB6F894DEBFDF
:100670000FBECDBFDF91CF911F910C94F101CF93AD
:10068000DF93CDB7DEB7C257D1090FB6F894DEBFFE
:100690000FBECDBFCE0101967C0180E3C82E81E064
:1006A000D82E96E2A92E91E0B92E18E0E3961FAE5F
:1006B000E39798EFE2969FAFE297412C512C812F60
:1006C000880F0E94FB00811509F475C0992493944A
:1006D000950CF701E50DF11D10830E94BD000091FE
:1006E0006100592C811509F475C01F5F183739F75F
:1006F000352C511002C0332433948701652C712CA2
:10070000842C912C0E94E90160E080E00E94B501F8
:10071000C501511001C0C6010E94B50262E080E02F
:100720000E94B501511461F0F8012080822D0E94D1
:100730000B0380E20E94F101822D90E00E94C10231
:1007400064E080E00E94B50189E391E00E94B50277
:10075000C3010E94C1028CE391E00E94B502C40172
:100760000E94C1024114B1F066E080E00E94B50130
:1007700080E491E00E94B502E2968FADE2970E947C
:100780000B0383E491E00E94B502E3968FADE397FB
:100790000E940B03FFE32DE083E0F15020408040F6
:1007A000E1F700C000000F5F1F4F802F8E198315E7
:1007B00008F07BCFA7CF009161000E94DC00809100
:1007C0006000883F21F0003229F4082F03C0003276
:1007D00009F48BCF411441F0E2960FADE2974394B8
:1007E000E2960FAFE29781CFE3961FAFE397F7CF83
:1007F0000E945E000E947C000E9461010E94C6016E
:100800000E943F03AA1BBB1B51E107C0AA1FBB1FCD
:10081000A617B70710F0A61BB70B881F991F5A958C
:10082000A9F780959095BC01CD010895EE0FFF1FAB
:100830000590F491E02D0994F894FFCFAD022402C5
:10084000240224022402240224022402B1022402EB
:1008500024026102650269026D0271027502790269
:100860007D0281028502A9022402240224022402BC
:100870002402240212024102950245029902490211
:1008800024028D024D02240224029102240251020C
:100890005502240224029D02590289025D022402AB
:1008A0002402240224022402240224022402240218
:1008B0002402240224022402240224022402240208
:1008C00024022402240224022402A102240224027B
:1008D00024022402240224022402240224022402E8
:0408E0002402A50247
:1008E400F8F800417F410000427F400000417F4012
:1008F4000000363600007E1111117E007F494949FF
:1009040036007F4141221C007F09090901007F0252
:1009140004087F003E4141413E00464949493100B7
:100924003F4040403F003E5149453E0042615149ED
:1009340046002141454B31001814127F1000274511
:10094400454539003C4A4949300001710905030015
:10095400364949493600064949291E0001017F01EB
:1009640001007F0808087F007F40404040003E416E
:10097400414122007F49494941007F091929460024
:100984004428102844006313086463000808080816
:100994000800307800303132333435363738394155
:1009A40042434445460049324320464F554E440095
:1009B400493243204E4F4E45004E3A0020453A00FE
:0809C400533A0020413A000003
:00000001FF
