:100000000C942A000C943C000C943C000C943C0092
:100010000C943C000C943C000C943C000C943C0070
:100020000C943C000C943C000C943E000C943C005E
:100030000C943C000C943C000C943C000C943C0050
:100040000C943C000C943C000C943C000C943C0040
:100050000C943C0011241FBECFE5D8E0DEBFCDBF1D
:1000600020E0A0E6B0E001C01D92A436B207E1F79F
:100070000E94E0000C9444020C9400001F921FB6F2
:100080001F9211248F939F93AF93BF938091600031
:1000900090916100A0916200B09163000196A11D52
:1000A000B11D8093600090936100A0936200B093B3
:1000B0006300BF91AF919F918F911F901FBE1F90C2
:1000C00018952FB7F894609160007091610080914D
:1000D0006200909163002FBF08958AE083BF8CE790
:1000E0008CBF12BE89B7826089BF0895843670F4D0
:1000F000282F30E0A1E3B0E00E94350224E630E092
:1001000040E050E00E941302C901089581E390E0AD
:10011000089581B3806381BB82EA8FBD89E18EBD82
:1001200081E390E097BD86BD1BBC1ABC19BC18BC0E
:100130000895CF93C62F0E9476009BBD8ABD8C2F59
:100140000E94760099BD88BDCF91089598B3907FA5
:10015000892B88BB089585E00E94A60060E580E5B4
:100160000C9499008AE00E94A6006BE48BE40C9446
:10017000990086E00E94A6006BE48BE40C94990041
:1001800089E00E94A6006BE48BE40C9499008FE058
:100190000E94A60064E684E60C94990060E080E08A
:1001A0000E94990080E00C94A60029B330E0A901D8
:1001B00002C0569547958A95E2F7CA018170089565
:1001C00000D000D0CDB7DEB787B38F6087BB8AB3CE
:1001D000897F8ABB8BB386608BBB0E9489000E949B
:1001E0006D0078940E94CE000E9461004B015C017A
:1001F0000E946100681979098A099B09683E734069
:1002000081059105E8F18827C99983958983992704
:10021000CA9993959A831C821B82412C512C0E946F
:1002200061006B017C0189B390E081FB6624772437
:1002300060F8362C09B310E002FB0027112700F903
:10024000202E8B819C81892B09F060C0998181E0EF
:100250008625282F911101C020E08A818115E1F0C7
:1002600081E08027511021C02115C1F0811529F1AD
:100270003114C1F1211431F10E94AB00302E08C0BD
:100280000E94CE00B5CF1B821C8203C01B821C8241
:10029000512C2A823982C3CF80E0E4CF582E550CEE
:1002A00092E0591639F0512CE3CF21E0521629F093
:1002B00032E0532E44244394DBCF5524539422E060
:1002C000422ED6CFE89451F8511006C00E94B900D2
:1002D000462C82E0582EDDCF0E94C000352C92E0E3
:1002E000492ED7CF211459F082E0581621F00E94F0
:1002F000C000502EF4CF0E94B900402EEACF0E94D9
:10030000C7004601570191E09B83BECF8B819C8142
:10031000019799F40E94C700D701C601881999096D
:10032000AA09BB094997A105B10508F4B2CF0E94FB
:10033000B2004601570192E0E7CF8B819C81029782
:1003400099F40E94B200D701C60188199909AA0937
:10035000BB098897A105B10508F49BCF0E94C7008F
:100360004601570193E0D0CF8B819C81039761F5C3
:100370000E94C700D701C60188199909AA09BB09BB
:100380000F97A105B10508F484CF91E0491209C087
:100390000E94B9004601570184E090E09C838B8362
:1003A00078CF92E0491207C00E94C0004601570171
:1003B00085E090E0F3CF0E94CE004601570196E021
:1003C0009B831C82412C65CF8B819C810497B9F45F
:1003D000611059CF011157CF0E94B900C818D90830
:1003E000EA08FB089CE2C91691E0D906E104F10491
:1003F00008F44FCF0E94CE0086E090E0CFCF8B81F3
:100400009C81059739F461103ECF01113CCF0E94C9
:10041000C000E4CF0E94CE00602A611037CF212CAB
:10042000312C96E071CFA1E21A2EAA1BBB1BFD0155
:100430000DC0AA1FBB1FEE1FFF1FA217B307E407C3
:10044000F50720F0A21BB30BE40BF50B661F771F1B
:10045000881F991F1A9469F76095709580959095FB
:100460009B01AC01BD01CF010895A29FB001B39FD4
:10047000C001A39F700D811D1124911DB29F700DAD
:0C048000811D1124911D0895F894FFCFF8
:00000001FF
