:100000000C942A000C9434000C9434000C943400AA
:100010000C9434000C9434000C9434000C94340090
:100020000C9434000C9434000C9434000C94340080
:100030000C9434000C9434000C9434000C94340070
:100040000C9434000C9434000C9434000C94340060
:100050000C94340011241FBECFE5D8E0DEBFCDBF25
:100060000E94CC000C9431010C94000087B38F6087
:1000700087BB81B3806381BB81EA8FBD8AE08EBD7F
:100080001BBC1ABC19BC18BC089590E09BBD8ABD6E
:1000900070E079BD68BD0895C098C19AC298C39AAE
:1000A00090E09BBD8ABD99BD88BD08951BBC1ABC5C
:1000B00019BC18BC88B3807F88BB0895D39AD498A4
:1000C000DC98DB98089512BE81E088BF82E083BF90
:1000D000089513BE0895DB9800C0DB9A33E03A958B
:1000E000F1F70000DB980E94630080E090E0DC0103
:1000F00021E0CC9B20C00E94630020E030E0A901F9
:1001000061E0CC9931C082B713BE542F432F322FF8
:100110002227280F311D411D511D60E072E18AE741
:1001200090E00E94E50020E832E045E753E00E94BD
:10013000F500C901089508B600FE04C00196A11D8E
:10014000B11D28BF32B74427582F692F7A2F430F8C
:10015000511D611D711D463A5E406105710548F2F1
:1001600013BE8FEF9FEF089508B600FE05C02F5F06
:100170003F4F4F4F5F4F68BF72B7B42FA32F922FDF
:100180008827870F911DA11DB11D863A9E40A105AC
:10019000B10508F4B6CFE4CF0E9436000E945E009D
:1001A00087EA91E60197F1F700C000000E946B001A
:1001B000459738F40E94560087E99AE30197F1F7D2
:1001C000F3CF88E70E944C00F7CFDB018F939F931A
:1001D0000E941701BF91AF91A29F800D911DA39F17
:1001E000900DB29F900D11240895A1E21A2EAA1B22
:1001F000BB1BFD010DC0AA1FBB1FEE1FFF1FA217D7
:10020000B307E407F50720F0A21BB30BE40BF50BD3
:10021000661F771F881F991F1A9469F7609570955C
:10022000809590959B01AC01BD01CF0108950E947E
:100230002201A59F900DB49F900DA49F800D911D4C
:1002400011240895A29FB001B39FC001A39F700D18
:10025000811D1124911DB29F700D811D1124911DCE
:060260000895F894FFCFA1
:00000001FF
