:100000000C942A000C9447000C9447000C94470071
:100010000C9447000C9447000C9447000C94470044
:100020000C9447000C9447000C9447000C94470034
:100030000C9447000C9447000C9447000C94470024
:100040000C9447000C9447000C9447000C94470014
:100050000C94470011241FBECFE5D8E0DEBFCDBF12
:1000600011E0A0E6B0E0EAE7FDE002C005900D92E5
:10007000A435B107D9F721E0A4E5B1E001C01D9294
:10008000A835B207E1F70E9498050C9467060C9416
:1000900000001AB882E08BB910BC8CE089B986E800
:1000A00080BD88E08AB908955D9BFECF8CB9089524
:1000B000CF93DF93EC018991811103C0DF91CF9140
:1000C00008950E945400F7CF1F93CF93DF9300D081
:1000D00000D00F92CDB7DEB7382F292F10E0EAE01D
:1000E000F0E0832F922FBF010E941C06DE011196C3
:1000F000A10FB11D1F5F805D8C93832F922F362F30
:10010000272F0A9770F7111109C00F900F900F90C9
:100110000F900F90DF91CF911F9108951150FE0124
:100120003196E10FF11D80810E945400ECCF0F93B6
:100130001F93CF93DF93082F162FD42FC52F87E758
:1001400090E00E945800802F90E00E9464008DE7AC
:1001500090E00E945800812F90E00E94640081E8A6
:1001600090E00E9458008D2F9C2F0E94640085E82B
:1001700090E0DF91CF911F910F910C94580088EE81
:1001800093E006B607FE06C091B1987F81E0909398
:1001900062000895019729F023E02A95F1F7000005
:1001A000F0CF9FEF80E0F3CF84B38C7F84BB85B327
:1001B0008C7F85BB11B882E080B984E086BF08954A
:1001C00028EE33E093B39823981302C081E008959A
:1001D0002150304029F093E09A95F1F70000F2CFDA
:1001E00080E00895CF9316BE84B38C7F84BB85B323
:1001F0008C7F85BB81E00E94E000C9E0811106C0D0
:10020000C0E00E94D4008C2FCF910895999911C01D
:10021000A09A83E08A95F1F70000A09881E00E94FF
:10022000E000811569F383E08A95F1F70000CA9533
:1002300069F7A09AA19A83E08A95F1F70000A09847
:1002400081E00E94E0008115D9F283E08A95F1F700
:100250000000A19883E08A95F1F7000083E00E94F6
:10026000E000C82FCECF84E986BF88EE93E006B6C3
:1002700004FC0AC000C000C0000083E00E94E0004F
:1002800081110AC08DEF03C0019739F48EEF80937E
:1002900062000E94F20080E0089523E02A95F1F7C1
:1002A0000000E5CFCF93C09162000E943301811519
:1002B00059F088EF809361008C2F8F7E803249F453
:1002C000C0936200CF910895809162008093610095
:1002D000F7CFC834A9F30E94F2008111F1CF8DEF5E
:1002E000F5CFCF93C82F84EA86BF0E94BF0081114B
:1002F00002C080E014C080916200883011F080312B
:10030000C1F7C3B984E886BF0E94BF00811589F395
:100310009091620081E0C0FD04C0983151F7CF9107
:1003200008959034FBCF83B984E886BF0E94BF0054
:10033000811531F081E090916200983209F080E0FF
:100340000895CF93DF93EC0184EC86BF0E94BF0039
:10035000811531F090916200903529F493B1988322
:10036000DF91CF91089580E0FBCFCF93DF93EC0135
:1003700084E886BF0E94BF00811531F09091620031
:10038000983529F493B19883DF91CF91089580E057
:10039000FBCFCF93C82F80915701811549F088E793
:1003A0000E947101811107C00E94520110925701F1
:1003B00080E0CF9108958C2F0E9493018111F9CF95
:1003C000F3CFCF93C62F0E94C901811549F08C2F1E
:1003D0000E949301811106C00E94520110925701A0
:1003E000CF9108950E94330180935701F9CF682F70
:1003F00080E00C94E101682F80E40C94E10187EA2D
:1004000091E60197F1F700C0000081E08093570169
:100410008EEA0E94F70185ED0E94F70180E80E94B4
:10042000F70188EA0E94F7018FE30E94F70183ED4C
:100430000E94F70180E00E94F70180E40E94F7012A
:100440008DE80E94F70184E10E94F70180E20E949A
:10045000F70182E00E94F70181EA0E94F70188EC2F
:100460000E94F7018AED0E94F70182E10E94F701E4
:1004700081E80E94F7018FE70E94F70189ED0E9451
:10048000F70181EF0E94F7018BED0E94F70180E4F4
:100490000E94F70184EA0E94F70186EA0E94F701B0
:1004A0008FEA0C94F701CF93C82F862F806B0E94A0
:1004B000F7018C2F8F700E94F7018C2F82958F701F
:1004C0008061CF910C94F701CF93DF93C0E06C2F44
:1004D00080E00E94530280E40E94C901811551F01E
:1004E000D0E880E00E949301811107C00E94520170
:1004F00010925701DF91CF910895DA9591F70E94FC
:10050000330180935701CF5FC830A1F3E0CF8091D2
:100510005701811102C00E94FF010C946402EF9206
:10052000FF920F931F93CF93DF93CDB7DEB72A9738
:100530000FB6F894DEBF0FBECDBFFE01369695E034
:10054000DF011D929A95E9F785529E2F2F2F843552
:10055000C8F4E82F880FFF0BE759F94F0C945206A7
:1005600085E0E8E8F0E0DE01119601900D928A95B1
:10057000E1F785E0FE013196DE01169601900D92BD
:100580008A95E1F7092F122F7E01BBE0EB0EF11CDB
:10059000F80181918F010E94FB010E151F05C1F723
:1005A00080E02A960FB6F894DEBF0FBECDBFDF9174
:1005B000CF911F910F91FF90EF900C94FB0185E07C
:1005C000EEE8F0E0D0CF85E0E4E9F0E0CCCF85E0E4
:1005D000EAE9F0E0C8CF85E0E3E6F0E0C4CF85E0EB
:1005E000E0EAF0E0C0CF85E0E6EAF0E0BCCF85E0ED
:1005F000ECEAF0E0B8CF85E0E2EBF0E0B4CF85E0E4
:10060000E8EBF0E0B0CF85E0E8E6F0E0ACCF85E0E5
:10061000EEEBF0E0A8CF85E0E4ECF0E0A4CF85E0DD
:10062000EAECF0E0A0CF85E0E0EDF0E09CCF85E0E3
:10063000E6EDF0E098CF85E0ECEDF0E094CF85E0DA
:10064000E2EEF0E090CF85E0E8EEF0E08CCF85E0E0
:10065000EEEEF0E088CF85E0E4EFF0E084CF85E0D7
:10066000EAEFF0E080CF85E0E0E0F1E07CCF85E0EC
:10067000E6E0F1E078CF85E0ECE0F1E074CF85E0F2
:10068000EDE6F0E070CF85E0E2E1F1E06CCF85E0EF
:10069000E2E7F0E068CF85E0E8E1F1E064CF85E0F3
:1006A000EEE1F1E060CFCF93DF93EC01899181110E
:1006B00003C0DF91CF9108950E948F02F7CFCF92B0
:1006C000DF92EF92FF921F93CF93DF9300D000D081
:1006D00000D0CDB7DEB79C01892B81F480E30F9069
:1006E0000F900F900F900F900F90DF91CF911F916F
:1006F000FF90EF90DF90CF900C948F02FE01319627
:1007000010E07F018AE0C82ED12CC901B6010E94F9
:100710001C061F5F805D8193C9019B010A9710F041
:10072000153099F71150F701E10FF11D80810E94FA
:100730008F021111F7CF0F900F900F900F900F9025
:100740000F90DF91CF911F91FF90EF90DF90CF90AE
:100750000895CF93C82F80916200809360000E941B
:1007600052018C2FCF9108951092560186E40E9479
:100770007101811569F083E2809356010E94330173
:1007800081110FC0809162008093600087E008951E
:1007900081E00E94A90380916100883FA9F781E070
:1007A000089580E00895CF93DF93D82FC62F8091CE
:1007B0005601880F0E94710181110AC08091620068
:1007C000809360000E9452018C2FDF91CF91089599
:1007D0008D2F0E949301811589F30E9433018111AD
:1007E00006C0809162008093600087E0EECF80E0D9
:1007F000ECCF0E94B403811118C062E081E00E9436
:10080000D303811112C083EC99E00197F1F700C086
:10081000000063E080E10E94D303811106C0EFE491
:10082000F3EC3197F1F700C0000008950F931F9388
:10083000CF93DF9300D0CDB7DEB78C018091560106
:10084000880F81600E94710181110EC08091620049
:10085000809360000E94520184E00F900F90DF911E
:10086000CF911F910F910895CE0102960E94A10190
:10087000811108C080916200809360000E94520143
:1008800085E0EBCFCE0101960E94B501811108C031
:1008900080916200809360000E94520186E0DDCF6B
:1008A0000E943301811106C0809162008093600034
:1008B00087E0D3CF8A812981382F30935501209347
:1008C0005401A5E0B0E00E94580626E030E040E088
:1008D00050E00E943006F8013183208388E5809340
:1008E000600080E0BACF81E083BF12BE089512BEDF
:1008F0009927CB999395981729F092B79617C0F33B
:1009000080E0089581E00895AF92BF92CF92DF9288
:10091000EF92FF920F931F93CF93DF9300D000D0FD
:100920000F92CDB7DEB77C016B01CE0101965C0161
:1009300085E0F50111928A95E9F71FB7F894D39AEB
:10094000DB9887E893E10197F1F700C00000DB9A9C
:100950009AE09A95F1F7D398DB9A68E780E00E94D5
:100960007704811112C01FBF81E00F900F900F908C
:100970000F900F90DF91CF911F910F91FF90EF900B
:10098000DF90CF90BF90AF90089568E781E00E941C
:100990007704811103C01FBF82E0E7CF68E780E0E2
:1009A0000E94770400E0811103C01FBF83E0DDCF08
:1009B00064E681E00E947704811103C01FBF84E0D8
:1009C000D4CF12BE99B3892F887093FD23C042B74C
:1009D000E02FE695E695E6952E2F30E0EA0DFB2D0B
:1009E000F11D9081990F4E3208F09160F501E20FF0
:1009F000F31F90830F5F0832D9F639812B819A81DA
:100A0000930F920F4C81940F4D81491739F01FBFFE
:100A100085E0ABCF82B78837A8F2D0CFF60130831C
:100A2000F70120831FBFA1CFCF93C82F85E40E9479
:100A30008F028C2F90E00E945F0384E291E0CF91BF
:100A40000C9453031F93CF93DF93CDB7DEB7619719
:100A50000FB6F894DEBF0FBECDBF182F81E1ECE2D8
:100A6000F1E0DE01119601900D928A95E1F789E29D
:100A700091E00E945303812F82958F70FE01319681
:100A8000E80FF11D80810E948F021F70FE013196D8
:100A9000E10FF11D808161960FB6F894DEBF0FBEA5
:100AA000CDBFDF91CF911F910C948F021F93CF93F5
:100AB000DF93182FD92FC62F642F80E00E94530296
:100AC0008DE391E00E945303C11531F08C2FDF912B
:100AD000CF911F910C941405812F9D2F0E945F03CD
:100AE00080E491E0DF91CF911F910C945303CF9359
:100AF000C82F80E00E94530284E491E00E945303D7
:100B000080915601811569F00E942205C11571F08E
:100B10008AE491E00E94530380916000CF910C948D
:100B2000220587E491E00E945303F0CFCF9108950E
:100B300000D000D0CDB7DEB70E9449000E94D4009B
:100B40000E94F2000E94FF010E9464021A82198230
:100B50001C821B820E9473042FE78AE196E02150D9
:100B600080409040E1F700C00000F12CBE016D5FB5
:100B70007F4FCE0104960E948404082FF11409F4DB
:100B800044C0CE0101960E941604182FFF24F3944E
:100B90008111F12C0E94870260E080E00E945302E4
:100BA0008EE491E00E945303011136C08C8190E0E5
:100BB0000E945F0383E40E948F0262E080E00E9453
:100BC000530281E591E00E945303011129C08B81FA
:100BD00090E00E945F0385E20E948F02C980DA8064
:100BE00044E0612FC6010E9456051115E9F066E048
:100BF000812F0E9477052FE78AE196E021508040FF
:100C00009040E1F700C00000B1CF0E94F903182F17
:100C1000811509F4B6CFBECF802F0E941405CDCF29
:100C2000802F0E941405DACF0111E5CFA6016B8158
:100C30008C810E949700DFCFAA1BBB1B51E107C02C
:100C4000AA1FBB1FA617B70710F0A61BB70B881F5C
:100C5000991F5A95A9F780959095BC01CD010895EB
:100C6000A1E21A2EAA1BBB1BFD010DC0AA1FBB1FB0
:100C7000EE1FFF1FA217B307E407F50720F0A21B22
:100C8000B30BE40BF50B661F771F881F991F1A948F
:100C900069F760957095809590959B01AC01BD01B9
:100CA000CF010895EE0FFF1F0590F491E02D0994F8
:100CB000A29FB001B39FC001A39F700D811D11249D
:100CC000911DB29F700D811D1124911D0895F894FE
:100CD000FFCF4B03C202C202C202C202C202C20260
:100CE000C2024F03C202C202FF02030307030B0347
:100CF0000F03130317031B031F0323034703C2023E
:100D0000C202C202C202C202C202B002DF02330346
:100D1000E3023703E702C2022B03EB02C202C20264
:100D20002F03C202EF02F302C202C2023B03F70228
:100D30002703FB02C202C202C202C202C202C202F4
:100D4000C202C202C202C202C202C202C202C20283
:100D5000C202C202C202C202C202C202C202C20273
:100D60003F03C202C202C202C202C202C202C202E5
:0A0D7000C202C202C202C202430323
:100D7A00F8F8F800417F410000427F400000417FBF
:100D8A00400000363600003C532C543D002C483DB0
:100D9A00002C4C3D003E0A007E1111117E007F4955
:100DAA00494936007F4141221C007F090909010097
:100DBA007F0204087F003E4141413E0046494949BD
:100DCA0031003F4040403F003E5149453E004261AC
:100DDA00514946002141454B31001814127F100039
:100DEA002745454539003C4A494930000171090502
:100DFA000300364949493600064949291E000101BE
:100E0A007F0101007F0808087F007F4040404000C2
:100E1A003E41414122007F49494941007F09192940
:100E2A004600442810284400631308646300080835
:100E3A0008080800202020200030780030313233A2
:100E4A00343536373839414243444546004C3A0036
:100E5A00206C7800413A002D2D0020533A00543A74
:040E6A0000483A0002
:00000001FF
