:100000000C942A000C9434000C9434000C943400AA
:100010000C9434000C9434000C9434000C94340090
:100020000C9434000C9434000C9434000C94340080
:100030000C9434000C9434000C9434000C94340070
:100040000C9434000C9434000C9434000C94340060
:100050000C94340011241FBECFE5D8E0DEBFCDBF25
:100060000E9465000C94AB000C94000081B3806387
:1000700081BB82EA8FBD89E18EBD81E390E097BDAF
:1000800086BD1BBC1ABC19BC18BC089598B3907FE0
:1000900098BB98B3956098BB282F30E0A1E3B0E0FF
:1000A0000E949C0024E630E040E050E00E947A008C
:1000B0003BBD2ABD39BD28BD08951BBC1ABC19BC67
:1000C00018BC88B3807F88BB089587B38F6087BBD7
:1000D00088B3807F88BB0E9436002FE38DE093E0D9
:1000E000215080409040E1F700C000008CE30E9466
:1000F0004600FFCFA1E21A2EAA1BBB1BFD010DC0BB
:10010000AA1FBB1FEE1FFF1FA217B307E407F507C7
:1001100020F0A21BB30BE40BF50B661F771F881FA3
:10012000991F1A9469F760957095809590959B0139
:10013000AC01BD01CF010895A29FB001B39FC001E2
:10014000A39F700D811D1124911DB29F700D811D03
:0A0150001124911D0895F894FFCFCB
:00000001FF
